S00B00004331312E7372656374
S11300000C943E010C945B010C945B010C945B0119
S11300100C945B010C945B010C945B010C945B01EC
S11300200C945B010C945B010C945B010C945B01DC
S11300300C945B010C944A050C945B010C945B01D9
S11300400C945B010C945B010C945B010C945B01BC
S11300500C945B010C945B010C945B010C945B01AC
S11300600C945B010C945B010C945B010C945B019C
S11300700C945B010C945B010C945B010664EC1B17
S11300803C04BC163E3BE5B93CC93C37C29E5A3DD4
S1130090660498083EEA69AAAA3E000000803F0070
S11300A0000000000000005F0000000300030014D3
S11300B03E143E14242A7F2A1243330866613649CB
S11300C05522500005030000001C2241000041227B
S11300D01C0014083E081408083E080800503000AC
S11300E000080808080800606000002010080402E6
S11300F03E5149453E0004027F0042615149462277
S1130100414949361814127F1027454545393E495F
S11301104949320101710907364949493626494995
S1130120493E0036360000005636000008142241CD
S11301300014141414140041221408020151090675
S11301403E4159555E7E0909097E7F494949363E3B
S1130150414141227F4141413E7F494949417F0913
S11301600909013E4141493A7F0808087F00417F5F
S11301704100304040403F7F081422417F404040CE
S1130180407F020C027F7F0204087F3E4141413ED2
S11301907F090909061E2121215E7F0909097626A6
S11301A04949493201017F01013F4040403F1F203E
S11301B040201F7F2010207F41221C22410708700D
S11301C008076151494543007F41000002040810BB
S11301D0200000417F0004020102044040404040EE
S11301E0000102040020545454787F4444443838B5
S11301F044444444384444447F3854545418040414
S11302007E0505085454543C7F0804047800447D5A
S113021040002040443D007F1028440000417F40BE
S1130220007C047804787C08040478384444443816
S11302307C14141408081414147C007C0804044866
S11302405454542004043F44443C4040207C1C202B
S113025040201C3C4030403C44281028440C505062
S1130260503C4464544C44000836414100007F0033
S113027000414136080002010204020011241FBE9D
S1130280CFEFD0E1DEBFCDBF11E0A0E0B1E0E6E604
S1130290F9E102C005900D92AC3BB107D9F711E02A
S11302A0ACEBB1E001C01D92A43CB107E1F70E94A0
S11302B048070C94B10C0C94000085B7806885BF86
S11302C085B7806885BF8FE781B98FEF87B90E94B2
S11302D0CE0308959093050180930401149826E3B6
S11302E028B91398139A149A009771F480EF90E048
S11302F0909301018093000180E491E090930301C5
S11303008093020188E432C08130910571F480E465
S113031091E0909301018093000180EF90E090932D
S113032003018093020188EE21C08230910571F4AB
S113033080EF90E0909301018093000180E491E0CC
S1130340909303018093020188E810C083309105E3
S113035081F480E491E0909301018093000180EFA7
S113036090E0909303018093020188E288B9139886
S1130370139A14988AE288B91398139A149A18B89D
S11303801398139A18B81398139A809100019091B6
S11303900101019798B91398139A80910001815033
S11303A088B91398139A14988BE288B91398139AFE
S11303B0149A18B81398139A18B81398139A80912A
S11303C0020190910301019798B91398139A8091AF
S11303D00201815088B91398139A08950F931F93BB
S11303E0CF93DF93CDB7DEB728970FB6F894DEBF6F
S11303F00FBECDBFE22F2983232F3A834B835C8327
S1130400362F6D83672F7E838F8398877E2F4B8152
S11304105C81A32FEF81F88514988AE288B9139838
S1130420139A149A28B91398139A78B91398139AAB
S113043058B91398139A48B91398139A14988BE2DD
S113044088B91398139A149A68B91398139A38B9F7
S11304501398139AF8B91398139AE8B91398139A3E
S113046014988CE288B91398139A149A872F922FB0
S11304700CC018B91398139A08B91398139A2F5FDC
S11304803F4FE217F307A8F701964817590718F0EA
S11304902A2F362FF6CF28960FB6F894DEBF0FBE5C
S11304A0CDBFDF91CF911F910F9108950F931F93AB
S11304B0CF93DF93CDB7DEB728970FB6F894DEBF9E
S11304C00FBECDBFA22F2983232F3A834B835C8396
S11304D0362F6D837E838F839887F8018A2FAB81B3
S11304E0BC81672F0F81188514989AE298B91398E4
S11304F0139A149A28B91398139A88B91398139ACB
S1130500B8B91398139AA8B91398139A14989BE23C
S113051098B91398139A149A78B91398139A38B906
S11305201398139A18B91398139A08B91398139A2D
S113053014989CE298B91398139A149A482F522F3E
S11305400FC0218128B91398139A228128B93496AF
S11305501398139A01960817190798F74F5F5F4F7E
S1130560A417B50718F0832F962FF5CF28960FB64A
S1130570F894DEBF0FBECDBFDF91CF911F910F91D5
S113058008950F931F93CF93DF93CDB7DEB72897CA
S11305900FB6F894DEBF0FBECDBF109207011092C4
S11305A0060110920901109208011A821982E0E0F2
S11305B0F1E0808191810197482F9C838B831E8277
S11305C01D8282819381019798878F830485158585
S11305D020E03A815C8160E07E8198850E94EE0192
S11305E028960FB6F894DEBF0FBECDBFDF91CF9132
S11305F01F910F910895EF92FF920F931F93CF9342
S1130600DF9340910601509107018A010C5F1F4F4F
S11306106091080170910901982F90529F3508F05C
S1130620A3C0DB01179690E09C01220F331F220F19
S1130630331F280F391F2050304014988BE288B99B
S11306401398139A149A78B91398139A68B913984B
S1130650139AB8B91398139AA8B91398139ACA019C
S1130660CAE2DCE238C0C8B91398139A149A98B94C
S11306701398139A88B91398139A98B91398139ADC
S113068088B91398139A1498D8B91398139A149A8A
S1130690F9012F5F3F4FE491AB01F1E018C0FF2E49
S11306A0FE2219F0E0900B0102C0E0900D01E8B8C1
S11306B01398139AFF2019F0F0900A0102C0F090E9
S11306C00C01F8B81398139A4F5F5F4FFF0FA417EC
S11306D0B50728F7019614980817190708F0C3CF2F
S11306E02AE228B91398139A149A98B91398139A6A
S11306F088B91398139A98B91398139A88B91398C8
S1130700139A14988CE288B91398139A149A0CC00B
S113071080910D0188B91398139A80910C0188B9BE
S11307201398139A6F5F7F4FA617B70788F78091C6
S113073006019091070106969093070180930601A4
S113074020910001309101018217930768F0109203
S11307500701109206018091080190910901089601
S1130760E0E0F1E091878087DF91CF911F910F91B5
S1130770FF90EF9008951F93CF93DF93EC0110E067
S113078003C00E94FB021F5FFE01E10FF11D808187
S11307908823B9F7DF91CF911F91089512988FE7BD
S11307A099EAA3E081509040A040E1F700C0000026
S11307B0129A8FE799EAA3E081509040A040E1F7B4
S11307C000C00000149A139A159A10981198169A5A
S11307D0149888E288B91398139A149A149881E1AA
S11307E088B91398139A149A8FE792E3A2E0815080
S11307F09040A040E1F700C0000014988BEC88B949
S11308001398139A149A81E088B91398139A149838
S113081080EC88B91398139A149A86E288B91398CD
S1130820139A88E088B91398139A149881EC88B9BC
S11308301398139A149A80E188B91398139A149808
S113084085EC88B91398139A149A85E388B9139898
S1130850139A8EE388B91398139A149886E388B987
S11308601398139A149A88E488B91398139A1498CD
S113087080EB88B91398139A149A8AE488B9139868
S1130880139A149881EB88B91398139A149A18B888
S11308901398139A8BE188B91398139A149886EBDA
S11308A088B91398139A149A84E0ECE3F1E09191D7
S11308B098B91398139A8150D1F7149887EC88B992
S11308C01398139A149A85EB88B91398139A149869
S11308D086EF88B91398139A149AE8E3F1E080E05C
S11308E0919198B91398139A8F5F8330C9F714982C
S11308F082EF88B91398139A149A18B81398139A14
S1130900149886E288B91398139A149A81E088B9E6
S11309101398139A14988AE388B91398139A149A1B
S113092085E588B91398139A149880EE88B91398BA
S1130930139A149A8FE0E8E2F1E0919198B9139830
S1130940139A8150D1F7149881EE88B91398139AA9
S1130950149AE8E1F1E080E0919198B91398139A20
S11309608F5F8F30C9F714988AE288B91398139A65
S1130970149AE3E1F1E080E0919198B91398139A05
S11309808F5F8430C9F714988BE288B91398139A4F
S1130990149A84E0EEE0F1E0919198B91398139AD7
S11309A08150D1F7149884E388B91398139A149A50
S11309B0149884EB88B91398139A149A18B8139856
S11309C0139A149887EB88B91398139A149A87E0AA
S11309D088B91398139A14988CE288B91398139AC7
S11309E0149A80EF90E00BC018B81398139A18B8B3
S11309F01398139A21503040B9F7019719F020E465
S1130A0031E0F2CF149889E288B91398139A149AB2
S1130A108FEB94EDA1E081509040A040E1F700C03D
S1130A200000119A0895CF93C82F8A3019F48DE0ED
S1130A300E941305E0ECF0E0908195FFFDCFC09398
S1130A40C6008C2F90E0CF910895E0ECF0E0808117
S1130A508823ECF78091C60090E008951092C500B9
S1130A608DE48093C40088E18093C10086E0809384
S1130A70C2008BE591E09093C1018093C0019093F3
S1130A80C3018093C2018DE491E09093BF018093F0
S1130A90BE0108951F920F920FB60F9211242F9248
S1130AA03F924F925F926F927F928F929F92AF92FA
S1130AB0BF92CF92DF92EF92FF920F931F932F93E7
S1130AC03F934F935F936F937F938F939F93AF93D2
S1130AD0BF93EF93FF93CF93DF93CDB7DEB7289700
S1130AE0DEBFCDBF4090430150904401C201880F46
S1130AF0991F880F991F9C01240D351D6090470193
S1130B0070904801620E731E8091450190914601D8
S1130B10A901480F591F58874F8300914101109133
S1130B204201B801882777FD8095982F0E946C08B0
S1130B3025E33AEF4EE85CE30E94F8080E945B0963
S1130B406B017C01EF81F885BF01882777FD8095D3
S1130B50982F0E946C084B015C019B01AC01C701FA
S1130B60B6010E94F8086B017C016091BC01709190
S1130B70BD01882777FD8095982F0E946C089B0102
S1130B80AC01C701B6010E946D070E9439086B01D0
S1130B907C011B019B01265F3F4F3A83298330EF81
S1130BA0631671040CF445C0519441945108509259
S1130BB044014092430166277727601B710B7093B1
S1130BC0420160934101882777FD8095982F0E9408
S1130BD06C0825E33AEF4EE85CE30E94F8080E94B3
S1130BE05B096B837C838D839E83B601882777FDA5
S1130BF08095982F0E946C082B013C012B813C812D
S1130C004D815E8160E070E080E793E40E94D1074B
S1130C109B01AC01C301B2010E946C070E94390818
S1130C207093BD016093BC010F2EF0EF6F2E712CF9
S1130C30F02D49815A8140345140BCF16091410109
S1130C4070914201719561957109709342016093AD
S1130C504101882777FD8095982F0E946C0825E331
S1130C603AEF4EE85CE30E94F8080E945B099B019E
S1130C70AC01C501B4010E94F8089B01AC0160E01D
S1130C8070E080EA93E40E946C0720E030E040E2E8
S1130C9051E40E946C070E9439087093BD0160936F
S1130CA0BC01E0E4F1E0FA83E9832F813885121670
S1130CB01306E4F08091430190914401919581954C
S1130CC09109909344018093430180914101909153
S1130CD0420191958195910990934201809341013C
S1130CE0D092BD01C092BC0118861F821214130455
S1130CF094F160914101709142017195619571097E
S1130D007093420160934101882777FD8095982F65
S1130D100E946C0825E33AEF4EE85CE30E94F80871
S1130D200E945B096B017C016F81788571956195E7
S1130D307109882777FD8095982F0E946C08A70178
S1130D4096010E94F8080E9439087093BD016093CF
S1130D50BC01212C312C8091BD018F938091BC0169
S1130D608F93809144018F93809143018F9380915D
S1130D7042018F93809141018F933A813F9349813E
S1130D804F933F922F927F926F9258855F938F81FA
S1130D908F9389E691E09F938F930E94EE091F92AF
S1130DA08FE18F931F921F920BE011E0F801818174
S1130DB08F9380818F9380EB91E09F938F930E9418
S1130DC0EE09F8010081118120914501309146011D
S1130DD040914701509148016091490170914A0145
S1130DE080914B0190914C010E94EE012F814F8123
S1130DF058855093460140934501462D7092480111
S1130E0060924701622D30924A0120924901898102
S1130E109A8190934C0180934B010FE110E0309143
S1130E2046015091480170914A01898190914C0189
S1130E300E94EE010FB6F894DEBF0FBECDBF289618
S1130E400FB6F894DEBF0FBECDBFDF91CF91FF91F7
S1130E50EF91BF91AF919F918F917F916F915F912E
S1130E604F913F912F911F910F91FF90EF90DF9041
S1130E70CF90BF90AF909F908F907F906F905F9036
S1130E804F903F902F900F900FBE0F901F9018958A
S1130E900E945D010E942E0510928000E1E8F0E0BE
S1130EA088E0808380818560808383E090E09093F4
S1130EB0890080938800EFE6F0E08081826080837F
S1130EC08AB18C608AB98BB18C608BB9789410929A
S1130ED00C0110920B01FFCF5058BB27AA270ED04C
S1130EE04DC13ED130F043D120F031F49F3F11F495
S1130EF01EF433C10EF4E095E7FB29C1E92F4FD16D
S1130F0080F3BA17620773078407950718F071F422
S1130F109EF567C10EF4E0950B2EBA2FA02D0B01A0
S1130F20B90190010C01CA01A0011124FF27591B2A
S1130F3099F0593F50F4503E68F11A16F040A22F30
S1130F40232F342F4427585FF3CF469537952795A1
S1130F50A795F0405395C9F77EF41F16BA0B620BA0
S1130F60730B840BBAF09150A1F0FF0FBB1F661FE7
S1130F70771F881FC2F70EC0BA0F621F731F841F2A
S1130F8048F4879577956795B795F7959E3F08F050
S1130F90B3CF9395880F08F09927EE0F979587950F
S1130FA008950CD0EBC0E3D040F0DAD030F021F457
S1130FB05F3F19F0CCC0511115C1CFC0F0D098F3E8
S1130FC09923C9F35523B1F3951B550BBB27AA27C6
S1130FD062177307840738F09F5F5F4F220F331F38
S1130FE0441FAA1FA9F333D00E2E3AF0E0E830D004
S1130FF091505040E695001CCAF729D0FE2F27D007
S1131000660F771F881FBB1F261737074807AB07D4
S1131010B0E809F0BB0B802DBF01FF2793585F4F49
S11310202AF09E3F510568F092C0DCC05F3FECF3AC
S1131030983EDCF3869577956795B795F7959F5F0E
S1131040C9F7880F911D9695879597F90895E1E062
S1131050660F771F881FBB1F621773078407BA07C1
S113106020F0621B730B840BBA0BEE1F88F7E0951C
S1131070089504D06894B111B5C0089598D088F04B
S11310809F5790F0B92F9927B751A0F0D1F0660F70
S1131090771F881F991F1AF0BA95C9F712C0B1308B
S11310A081F09FD0B1E008959CC0672F782F8827E6
S11310B0B85F39F0B93FCCF3869577956795B395CA
S11310C0D9F73EF490958095709561957F4F8F4F39
S11310D09F4F0895E89409C097FB3EF4909580953E
S11310E0709561957F4F8F4F9F4F9923A9F0F92FEA
S11310F096E9BB279395F695879577956795B79568
S1131100F111F8CFFAF4BB0F11F460FF1BC06F5F4D
S11311107F4F8F4F9F4F16C0882311F096E911C05F
S1131120772321F09EE8872F762F05C0662371F080
S113113096E8862F70E060E02AF09A95660F771F94
S1131140881FDAF7880F9695879597F9089597F988
S11311509F6780E870E060E008959FEF80EC089559
S113116000240A9416161706180609060895002482
S11311700A9412161306140605060895092E0394FC
S1131180000C11F4882352F0BB0F40F4BF2B11F470
S113119060FF04C06F5F7F4F8F4F9F4F089557FDCF
S11311A09058440F551F59F05F3F71F04795880FD1
S11311B097FB991F61F09F3F79F087950895121668
S11311C013061406551FF2CF4695F1DF08C0161614
S11311D017061806991FF1CF8695710561050894C5
S11311E00895E894BB2766277727CB0197F90895DC
S11311F00BD0C4CFB5DF28F0BADF18F0952309F07F
S1131200A6CFABCF1124EECFCADFA0F3959FD1F3C5
S1131210950F50E0551F629FF001729FBB27F00DA0
S1131220B11D639FAA27F00DB11DAA1F649F6627F5
S1131230B00DA11D661F829F2227B00DA11D621F44
S1131240739FB00DA11D621F839FA00D611D221FFE
S1131250749F3327A00D611D231F849F600D211DE2
S1131260822F762F6A2F11249F5750408AF0E1F085
S113127088234AF0EE0FFF1FBB1F661F771F881FCE
S113128091505040A9F79E3F510570F060CFAACF0E
S11312905F3FECF3983EDCF3869577956795B795B9
S11312A0F795E7959F5FC1F7FE2B880F911D9695E3
S11312B0879597F90895DF93D92F2FD0E695D79581
S11312C02AED3FE049E45FE3B33A6207730784071A
S11312D09507D7952AF0A2EA49EC90680FDE4EDF15
S11312E0ECE7F0E008D0DD0F0BF03ED0DD0F0BF49F
S11312F09058DF9108959F938F937F936F93FF93FB
S1131300EF939B01AC0174DFEF91FF9142D02F91D9
S11313103F914F915F916CCF20CF49DFE8F3E89480
S1131320E0E0BB279F57F0F02AED3FE049EC06C010
S1131330EE0FBB0F661F771F881F28F0B23A6207B3
S11313407307840728F0B25A620B730B840BE3957E
S11313509A9572F7803830F49A95BB0F661F771F01
S1131360881FD2F7904809C09B01AC0160E070E08F
S113137080E89FE316CE9F3F31F0915020F487958B
S113138077956795B795880F911D9695879597F9E9
S11313900895DF93CF931F930F93FF92EF92DF9201
S11313A07B018C01689405C0DA2EEF012DDFFE016C
S11313B0E894A5912591359145915591AEF3EF01AE
S11313C09DDDFE019701A801DA9479F7DF90EF9093
S11313D0FF900F911F91CF91DF910895A0E0B0E0AD
S11313E0E4EFF9E00C948A0CFE0135966191719159
S11313F0AF018091C0019091C1010E94020AE2E014
S11314000C94A60CACE0B0E0E8E0FAE00C947A0CA2
S11314107C016B018A01FC0117821682838181FFA2
S1131420BDC1CE0101964C01F7019381F60193FDF4
S1131430859193FF81916F01882309F4ABC18532B3
S113144039F493FD859193FF81916F01853229F4DD
S1131450B70190E00E94EA0BE7CF512C312C20E039
S11314602032A0F48B3269F030F4803259F08332A8
S113147069F420612CC08D3239F0803339F4216055
S113148026C02260246023C0286021C027FD27C015
S113149030ED380F3A3078F426FF06C0FAE05F9E4C
S11314A0300D1124532E13C08AE0389E300D1124C0
S11314B0332E20620CC08E3221F426FD6BC12064D1
S11314C006C08C3611F4206802C0883641F4F60157
S11314D093FD859193FF81916F018111C1CF982F65
S11314E09F7D9554933028F40C5F1F4FFFE3F983DD
S11314F00DC0833631F0833771F0833509F05BC05A
S113150022C0F801808189830E5F1F4F44244394D5
S1131510512C540115C03801F2E06F0E711CF80112
S1131520A080B18026FF03C0652D70E002C06FEF7C
S11315307FEFC5012C870E94DF0B2C0183012C85D2
S11315402F77222E17C03801F2E06F0E711CF801BC
S1131550A080B18026FF03C0652D70E002C06FEF4C
S11315607FEFC5012C870E94D40B2C012C852068A9
S1131570222E830123FC1BC0832D90E048165906BC
S1131580B0F4B70180E290E00E94EA0B3A94F4CF01
S1131590F50127FC859127FE81915F01B70190E059
S11315A00E94EA0B31103A94F1E04F1A51084114A9
S11315B0510471F7E5C0843611F0893639F5F80124
S11315C027FF07C060817181828193810C5F1F4F67
S11315D008C060817181882777FD8095982F0E5F00
S11315E01F4F2F76B22E97FF09C090958095709566
S11315F061957F4F8F4F9F4F2068B22E2AE030E0D5
S1131600A4010E941C0CA82EA81844C0853729F4F4
S11316102F7EB22E2AE030E025C0F22FF97FBF2EB4
S11316208F36C1F018F4883579F0B4C0803719F0DA
S1131630883721F0AFC02F2F2061B22EB4FE0DC029
S11316408B2D8460B82E09C024FF0AC09F2F96609A
S1131650B92E06C028E030E005C020E130E002C029
S113166020E132E0F801B7FE07C060817181828118
S113167093810C5F1F4F06C06081718180E090E010
S11316800E5F1F4FA4010E941C0CA82EA818FB2D4E
S1131690FF77BF2EB6FE0BC02B2D2E7FA51450F462
S11316A0B4FE0AC0B2FC08C02B2D2E7E05C07A2CD5
S11316B02B2D03C07A2C01C0752C24FF0DC0FE0114
S11316C0EA0DF11D8081803311F4297E09C022FFC7
S11316D006C07394739404C0822F867809F07394BF
S11316E023FD13C020FF06C05A2C731418F4530CA6
S11316F05718732C731468F4B70180E290E02C87B8
S11317000E94EA0B73942C85F5CF731410F43718E8
S113171001C0312C24FF12C0B70180E390E02C8774
S11317200E94EA0B2C8522FF17C021FF03C088E525
S113173090E002C088E790E0B7010CC0822F867861
S113174059F021FD02C080E201C08BE227FD8DE249
S1131750B70190E00E94EA0BA51438F4B70180E3C6
S113176090E00E94EA0B5A94F7CFAA94F401EA0D90
S1131770F11D8081B70190E00E94EA0BA110F5CF22
S1131780332009F451CEB70180E290E00E94EA0BC5
S11317903A94F6CFF7018681978102C08FEF9FEFCD
S11317A02C96E2E10C94960CFC010590615070407B
S11317B00110D8F7809590958E0F9F1F0895FC0116
S11317C06150704001900110D8F7809590958E0F6C
S11317D09F1F08950F931F93CF93DF93182F092F03
S11317E0EB018B8181FD03C08FEF9FEF20C082FF4F
S11317F010C04E815F812C813D81421753077CF4D8
S1131800E881F9819F012F5F3F4F3983288310833B
S113181006C0E885F985812F0995892B29F72E8142
S11318203F812F5F3F4F3F832E83812F902FDF9186
S1131830CF911F910F910895FA01AA27283051F1F1
S1131840203181F1E8946F936E7F6E5F7F4F8F4FED
S11318509F4FAF4FB1E03ED0B4E03CD0670F781F4C
S1131860891F9A1FA11D680F791F8A1F911DA11D31
S11318706A0F711D811D911DA11D20D009F468946A
S11318803F912AE0269F11243019305D3193DEF612
S1131890CF010895462F4770405D4193B3E00FD0C8
S11318A0C9F7F6CF462F4F70405D4A3318F0495DB3
S11318B031FD4052419302D0A9F7EACFB4E0A69596
S11318C09795879577956795BA95C9F700976105B8
S11318D0710508959B01AC010A2E0694579547950E
S11318E037952795BA95C9F7620F731F841F951F03
S11318F0A01D08952F923F924F925F926F927F9214
S11319008F929F92AF92BF92CF92DF92EF92FF920B
S11319100F931F93CF93DF93CDB7DEB7CA1BDB0BB7
S11319200FB6F894DEBF0FBECDBF09942A8839885C
S113193048885F846E847D848C849B84AA84B98463
S1131940C884DF80EE80FD800C811B81AA81B9816F
S1131950CE0FD11D0FB6F894DEBF0FBECDBFED0183
S10919600895F894FFCF86
S1131966F0004001000000000000FFFF000000003E
S1131976013F00000000EF000025270510093A7812
S11319864D05180D383A1F001F1A180A0F06458709
S1131996320A070207050000010000000A82270038
S11319A6002D00010073007D009B00A500000000CF
S11319B601000000000000250500000000000200F0
S11319C60000001305000000006C6566743A2025CB
S11319D6642C2072696768743A2025642C20746F1D
S11319E6703A2025642C20626F74746F6D3A20253A
S11319F6642C2074686574613A2025642C2064691B
S1131A06723A2025642C20696E743A2025640A00F3
S10F1A1625642C2025642C20256400008D
S9030000FC
